{
  "_format": "hh-sol-artifact-1",
  "contractName": "Notarizer",
  "sourceName": "contracts/Notarizer.sol",
  "abi": [
    {
      "inputs": [
        {
          "internalType": "address",
          "name": "initialOwner",
          "type": "address"
        }
      ],
      "stateMutability": "nonpayable",
      "type": "constructor"
    },
    {
      "inputs": [
        {
          "internalType": "address",
          "name": "owner",
          "type": "address"
        }
      ],
      "name": "OwnableInvalidOwner",
      "type": "error"
    },
    {
      "inputs": [
        {
          "internalType": "address",
          "name": "account",
          "type": "address"
        }
      ],
      "name": "OwnableUnauthorizedAccount",
      "type": "error"
    },
    {
      "anonymous": false,
      "inputs": [
        {
          "indexed": true,
          "internalType": "address",
          "name": "previousOwner",
          "type": "address"
        },
        {
          "indexed": true,
          "internalType": "address",
          "name": "newOwner",
          "type": "address"
        }
      ],
      "name": "OwnershipTransferred",
      "type": "event"
    },
    {
      "inputs": [
        {
          "internalType": "uint256",
          "name": "id",
          "type": "uint256"
        }
      ],
      "name": "getMerkleData",
      "outputs": [
        {
          "components": [
            {
              "internalType": "string",
              "name": "merkleRoot",
              "type": "string"
            },
            {
              "internalType": "string",
              "name": "bussinessId",
              "type": "string"
            }
          ],
          "internalType": "struct Notarizer.MerkleData",
          "name": "",
          "type": "tuple"
        }
      ],
      "stateMutability": "view",
      "type": "function"
    },
    {
      "inputs": [
        {
          "internalType": "uint256",
          "name": "id",
          "type": "uint256"
        }
      ],
      "name": "getMerkleRoot",
      "outputs": [
        {
          "internalType": "string",
          "name": "",
          "type": "string"
        }
      ],
      "stateMutability": "view",
      "type": "function"
    },
    {
      "inputs": [
        {
          "internalType": "uint256",
          "name": "id",
          "type": "uint256"
        }
      ],
      "name": "getMerkleRootBussinessId",
      "outputs": [
        {
          "internalType": "string",
          "name": "",
          "type": "string"
        }
      ],
      "stateMutability": "view",
      "type": "function"
    },
    {
      "inputs": [
        {
          "internalType": "uint256",
          "name": "",
          "type": "uint256"
        }
      ],
      "name": "merkleRoots",
      "outputs": [
        {
          "internalType": "string",
          "name": "merkleRoot",
          "type": "string"
        },
        {
          "internalType": "string",
          "name": "bussinessId",
          "type": "string"
        }
      ],
      "stateMutability": "view",
      "type": "function"
    },
    {
      "inputs": [],
      "name": "owner",
      "outputs": [
        {
          "internalType": "address",
          "name": "",
          "type": "address"
        }
      ],
      "stateMutability": "view",
      "type": "function"
    },
    {
      "inputs": [],
      "name": "renounceOwnership",
      "outputs": [],
      "stateMutability": "nonpayable",
      "type": "function"
    },
    {
      "inputs": [
        {
          "internalType": "address",
          "name": "newOwner",
          "type": "address"
        }
      ],
      "name": "transferOwnership",
      "outputs": [],
      "stateMutability": "nonpayable",
      "type": "function"
    },
    {
      "inputs": [
        {
          "internalType": "uint256",
          "name": "id",
          "type": "uint256"
        },
        {
          "internalType": "string",
          "name": "newMerkleRoot",
          "type": "string"
        },
        {
          "internalType": "string",
          "name": "bussinessId",
          "type": "string"
        }
      ],
      "name": "updateMerkleRoot",
      "outputs": [],
      "stateMutability": "nonpayable",
      "type": "function"
    }
  ],
  "bytecode": "0x60806040523480156200001157600080fd5b50604051620012f4380380620012f48339818101604052810190620000379190620001f4565b80600073ffffffffffffffffffffffffffffffffffffffff168173ffffffffffffffffffffffffffffffffffffffff1603620000ad5760006040517f1e4fbdf7000000000000000000000000000000000000000000000000000000008152600401620000a4919062000237565b60405180910390fd5b620000be81620000c660201b60201c565b505062000254565b60008060009054906101000a900473ffffffffffffffffffffffffffffffffffffffff169050816000806101000a81548173ffffffffffffffffffffffffffffffffffffffff021916908373ffffffffffffffffffffffffffffffffffffffff1602179055508173ffffffffffffffffffffffffffffffffffffffff168173ffffffffffffffffffffffffffffffffffffffff167f8be0079c531659141344cd1fd0a4f28419497f9722a3daafe3b4186f6b6457e060405160405180910390a35050565b600080fd5b600073ffffffffffffffffffffffffffffffffffffffff82169050919050565b6000620001bc826200018f565b9050919050565b620001ce81620001af565b8114620001da57600080fd5b50565b600081519050620001ee81620001c3565b92915050565b6000602082840312156200020d576200020c6200018a565b5b60006200021d84828501620001dd565b91505092915050565b6200023181620001af565b82525050565b60006020820190506200024e600083018462000226565b92915050565b61109080620002646000396000f3fe608060405234801561001057600080fd5b50600436106100885760003560e01c806371c5ecb11161005b57806371c5ecb1146101135780638da5cb5b14610144578063bba4ed8314610162578063f2fde38b1461019257610088565b80630aab8ba51461008d5780630e4f247b146100bd57806357e71cb1146100ed578063715018a614610109575b600080fd5b6100a760048036038101906100a29190610946565b6101ae565b6040516100b49190610a03565b60405180910390f35b6100d760048036038101906100d29190610946565b610256565b6040516100e49190610a03565b60405180910390f35b61010760048036038101906101029190610a8a565b6102fe565b005b610111610451565b005b61012d60048036038101906101289190610946565b610465565b60405161013b929190610b1f565b60405180910390f35b61014c610599565b6040516101599190610b97565b60405180910390f35b61017c60048036038101906101779190610946565b6105c2565b6040516101899190610c40565b60405180910390f35b6101ac60048036038101906101a79190610c8e565b610713565b005b60606001600083815260200190815260200160002060000180546101d190610cea565b80601f01602080910402602001604051908101604052809291908181526020018280546101fd90610cea565b801561024a5780601f1061021f5761010080835404028352916020019161024a565b820191906000526020600020905b81548152906001019060200180831161022d57829003601f168201915b50505050509050919050565b606060016000838152602001908152602001600020600101805461027990610cea565b80601f01602080910402602001604051908101604052809291908181526020018280546102a590610cea565b80156102f25780601f106102c7576101008083540402835291602001916102f2565b820191906000526020600020905b8154815290600101906020018083116102d557829003601f168201915b50505050509050919050565b610306610799565b600060016000878152602001908152602001600020600001805461032990610cea565b90501461036b576040517f08c379a000000000000000000000000000000000000000000000000000000000815260040161036290610d8d565b60405180910390fd5b604051806040016040528085858080601f016020809104026020016040519081016040528093929190818152602001838380828437600081840152601f19601f82011690508083019250505050505050815260200183838080601f016020809104026020016040519081016040528093929190818152602001838380828437600081840152601f19601f820116905080830192505050505050508152506001600087815260200190815260200160002060008201518160000190816104309190610f88565b5060208201518160010190816104469190610f88565b509050505050505050565b610459610799565b6104636000610820565b565b600160205280600052604060002060009150905080600001805461048890610cea565b80601f01602080910402602001604051908101604052809291908181526020018280546104b490610cea565b80156105015780601f106104d657610100808354040283529160200191610501565b820191906000526020600020905b8154815290600101906020018083116104e457829003601f168201915b50505050509080600101805461051690610cea565b80601f016020809104026020016040519081016040528092919081815260200182805461054290610cea565b801561058f5780601f106105645761010080835404028352916020019161058f565b820191906000526020600020905b81548152906001019060200180831161057257829003601f168201915b5050505050905082565b60008060009054906101000a900473ffffffffffffffffffffffffffffffffffffffff16905090565b6105ca6108ec565b600160008381526020019081526020016000206040518060400160405290816000820180546105f890610cea565b80601f016020809104026020016040519081016040528092919081815260200182805461062490610cea565b80156106715780601f1061064657610100808354040283529160200191610671565b820191906000526020600020905b81548152906001019060200180831161065457829003601f168201915b5050505050815260200160018201805461068a90610cea565b80601f01602080910402602001604051908101604052809291908181526020018280546106b690610cea565b80156107035780601f106106d857610100808354040283529160200191610703565b820191906000526020600020905b8154815290600101906020018083116106e657829003601f168201915b5050505050815250509050919050565b61071b610799565b600073ffffffffffffffffffffffffffffffffffffffff168173ffffffffffffffffffffffffffffffffffffffff160361078d5760006040517f1e4fbdf70000000000000000000000000000000000000000000000000000000081526004016107849190610b97565b60405180910390fd5b61079681610820565b50565b6107a16108e4565b73ffffffffffffffffffffffffffffffffffffffff166107bf610599565b73ffffffffffffffffffffffffffffffffffffffff161461081e576107e26108e4565b6040517f118cdaa70000000000000000000000000000000000000000000000000000000081526004016108159190610b97565b60405180910390fd5b565b60008060009054906101000a900473ffffffffffffffffffffffffffffffffffffffff169050816000806101000a81548173ffffffffffffffffffffffffffffffffffffffff021916908373ffffffffffffffffffffffffffffffffffffffff1602179055508173ffffffffffffffffffffffffffffffffffffffff168173ffffffffffffffffffffffffffffffffffffffff167f8be0079c531659141344cd1fd0a4f28419497f9722a3daafe3b4186f6b6457e060405160405180910390a35050565b600033905090565b604051806040016040528060608152602001606081525090565b600080fd5b600080fd5b6000819050919050565b61092381610910565b811461092e57600080fd5b50565b6000813590506109408161091a565b92915050565b60006020828403121561095c5761095b610906565b5b600061096a84828501610931565b91505092915050565b600081519050919050565b600082825260208201905092915050565b60005b838110156109ad578082015181840152602081019050610992565b60008484015250505050565b6000601f19601f8301169050919050565b60006109d582610973565b6109df818561097e565b93506109ef81856020860161098f565b6109f8816109b9565b840191505092915050565b60006020820190508181036000830152610a1d81846109ca565b905092915050565b600080fd5b600080fd5b600080fd5b60008083601f840112610a4a57610a49610a25565b5b8235905067ffffffffffffffff811115610a6757610a66610a2a565b5b602083019150836001820283011115610a8357610a82610a2f565b5b9250929050565b600080600080600060608688031215610aa657610aa5610906565b5b6000610ab488828901610931565b955050602086013567ffffffffffffffff811115610ad557610ad461090b565b5b610ae188828901610a34565b9450945050604086013567ffffffffffffffff811115610b0457610b0361090b565b5b610b1088828901610a34565b92509250509295509295909350565b60006040820190508181036000830152610b3981856109ca565b90508181036020830152610b4d81846109ca565b90509392505050565b600073ffffffffffffffffffffffffffffffffffffffff82169050919050565b6000610b8182610b56565b9050919050565b610b9181610b76565b82525050565b6000602082019050610bac6000830184610b88565b92915050565b600082825260208201905092915050565b6000610bce82610973565b610bd88185610bb2565b9350610be881856020860161098f565b610bf1816109b9565b840191505092915050565b60006040830160008301518482036000860152610c198282610bc3565b91505060208301518482036020860152610c338282610bc3565b9150508091505092915050565b60006020820190508181036000830152610c5a8184610bfc565b905092915050565b610c6b81610b76565b8114610c7657600080fd5b50565b600081359050610c8881610c62565b92915050565b600060208284031215610ca457610ca3610906565b5b6000610cb284828501610c79565b91505092915050565b7f4e487b7100000000000000000000000000000000000000000000000000000000600052602260045260246000fd5b60006002820490506001821680610d0257607f821691505b602082108103610d1557610d14610cbb565b5b50919050565b7f546865726520697320616c726561647920612076616c75652073746f7265642060008201527f666f722074686174206964000000000000000000000000000000000000000000602082015250565b6000610d77602b8361097e565b9150610d8282610d1b565b604082019050919050565b60006020820190508181036000830152610da681610d6a565b9050919050565b7f4e487b7100000000000000000000000000000000000000000000000000000000600052604160045260246000fd5b60008190508160005260206000209050919050565b60006020601f8301049050919050565b600082821b905092915050565b600060088302610e3e7fffffffffffffffffffffffffffffffffffffffffffffffffffffffffffffffff82610e01565b610e488683610e01565b95508019841693508086168417925050509392505050565b6000819050919050565b6000610e85610e80610e7b84610910565b610e60565b610910565b9050919050565b6000819050919050565b610e9f83610e6a565b610eb3610eab82610e8c565b848454610e0e565b825550505050565b600090565b610ec8610ebb565b610ed3818484610e96565b505050565b5b81811015610ef757610eec600082610ec0565b600181019050610ed9565b5050565b601f821115610f3c57610f0d81610ddc565b610f1684610df1565b81016020851015610f25578190505b610f39610f3185610df1565b830182610ed8565b50505b505050565b600082821c905092915050565b6000610f5f60001984600802610f41565b1980831691505092915050565b6000610f788383610f4e565b9150826002028217905092915050565b610f9182610973565b67ffffffffffffffff811115610faa57610fa9610dad565b5b610fb48254610cea565b610fbf828285610efb565b600060209050601f831160018114610ff25760008415610fe0578287015190505b610fea8582610f6c565b865550611052565b601f19841661100086610ddc565b60005b8281101561102857848901518255600182019150602085019450602081019050611003565b868310156110455784890151611041601f891682610f4e565b8355505b6001600288020188555050505b50505050505056fea264697066735822122072ae91334b2a4b5c4ecf83fc6b69e32817025267549eb372fd35fea3463ee73464736f6c63430008140033",
  "linkReferences": {},
  "deployedLinkReferences": {}
}