{
  "_format": "hh-sol-artifact-1",
  "contractName": "Notarizer",
  "sourceName": "contracts/Notarizer.sol",
  "abi": [
    {
      "inputs": [
        {
          "internalType": "address",
          "name": "initialOwner",
          "type": "address"
        }
      ],
      "stateMutability": "nonpayable",
      "type": "constructor"
    },
    {
      "inputs": [
        {
          "internalType": "address",
          "name": "owner",
          "type": "address"
        }
      ],
      "name": "OwnableInvalidOwner",
      "type": "error"
    },
    {
      "inputs": [
        {
          "internalType": "address",
          "name": "account",
          "type": "address"
        }
      ],
      "name": "OwnableUnauthorizedAccount",
      "type": "error"
    },
    {
      "anonymous": false,
      "inputs": [
        {
          "indexed": true,
          "internalType": "address",
          "name": "previousOwner",
          "type": "address"
        },
        {
          "indexed": true,
          "internalType": "address",
          "name": "newOwner",
          "type": "address"
        }
      ],
      "name": "OwnershipTransferred",
      "type": "event"
    },
    {
      "inputs": [
        {
          "internalType": "uint256",
          "name": "id",
          "type": "uint256"
        }
      ],
      "name": "getMerkleRoot",
      "outputs": [
        {
          "internalType": "string",
          "name": "",
          "type": "string"
        }
      ],
      "stateMutability": "view",
      "type": "function"
    },
    {
      "inputs": [
        {
          "internalType": "uint256",
          "name": "",
          "type": "uint256"
        }
      ],
      "name": "merkleRoots",
      "outputs": [
        {
          "internalType": "string",
          "name": "",
          "type": "string"
        }
      ],
      "stateMutability": "view",
      "type": "function"
    },
    {
      "inputs": [],
      "name": "owner",
      "outputs": [
        {
          "internalType": "address",
          "name": "",
          "type": "address"
        }
      ],
      "stateMutability": "view",
      "type": "function"
    },
    {
      "inputs": [],
      "name": "renounceOwnership",
      "outputs": [],
      "stateMutability": "nonpayable",
      "type": "function"
    },
    {
      "inputs": [
        {
          "internalType": "address",
          "name": "newOwner",
          "type": "address"
        }
      ],
      "name": "transferOwnership",
      "outputs": [],
      "stateMutability": "nonpayable",
      "type": "function"
    },
    {
      "inputs": [
        {
          "internalType": "uint256",
          "name": "id",
          "type": "uint256"
        },
        {
          "internalType": "string",
          "name": "newMerkleRoot",
          "type": "string"
        }
      ],
      "name": "updateMerkleRoot",
      "outputs": [],
      "stateMutability": "nonpayable",
      "type": "function"
    }
  ],
  "bytecode": "0x60806040523480156200001157600080fd5b5060405162000cfb38038062000cfb8339818101604052810190620000379190620001f4565b80600073ffffffffffffffffffffffffffffffffffffffff168173ffffffffffffffffffffffffffffffffffffffff1603620000ad5760006040517f1e4fbdf7000000000000000000000000000000000000000000000000000000008152600401620000a4919062000237565b60405180910390fd5b620000be81620000c660201b60201c565b505062000254565b60008060009054906101000a900473ffffffffffffffffffffffffffffffffffffffff169050816000806101000a81548173ffffffffffffffffffffffffffffffffffffffff021916908373ffffffffffffffffffffffffffffffffffffffff1602179055508173ffffffffffffffffffffffffffffffffffffffff168173ffffffffffffffffffffffffffffffffffffffff167f8be0079c531659141344cd1fd0a4f28419497f9722a3daafe3b4186f6b6457e060405160405180910390a35050565b600080fd5b600073ffffffffffffffffffffffffffffffffffffffff82169050919050565b6000620001bc826200018f565b9050919050565b620001ce81620001af565b8114620001da57600080fd5b50565b600081519050620001ee81620001c3565b92915050565b6000602082840312156200020d576200020c6200018a565b5b60006200021d84828501620001dd565b91505092915050565b6200023181620001af565b82525050565b60006020820190506200024e600083018462000226565b92915050565b610a9780620002646000396000f3fe608060405234801561001057600080fd5b50600436106100625760003560e01c80630aab8ba514610067578063715018a61461009757806371c5ecb1146100a157806384a2c518146100d15780638da5cb5b146100ed578063f2fde38b1461010b575b600080fd5b610081600480360381019061007c91906104f2565b610127565b60405161008e91906105af565b60405180910390f35b61009f6101cc565b005b6100bb60048036038101906100b691906104f2565b6101e0565b6040516100c891906105af565b60405180910390f35b6100eb60048036038101906100e69190610636565b610280565b005b6100f56102b0565b60405161010291906106d7565b60405180910390f35b6101256004803603810190610120919061071e565b6102d9565b005b60606001600083815260200190815260200160002080546101479061077a565b80601f01602080910402602001604051908101604052809291908181526020018280546101739061077a565b80156101c05780601f10610195576101008083540402835291602001916101c0565b820191906000526020600020905b8154815290600101906020018083116101a357829003601f168201915b50505050509050919050565b6101d461035f565b6101de60006103e6565b565b600160205280600052604060002060009150905080546101ff9061077a565b80601f016020809104026020016040519081016040528092919081815260200182805461022b9061077a565b80156102785780601f1061024d57610100808354040283529160200191610278565b820191906000526020600020905b81548152906001019060200180831161025b57829003601f168201915b505050505081565b61028861035f565b81816001600086815260200190815260200160002091826102aa929190610991565b50505050565b60008060009054906101000a900473ffffffffffffffffffffffffffffffffffffffff16905090565b6102e161035f565b600073ffffffffffffffffffffffffffffffffffffffff168173ffffffffffffffffffffffffffffffffffffffff16036103535760006040517f1e4fbdf700000000000000000000000000000000000000000000000000000000815260040161034a91906106d7565b60405180910390fd5b61035c816103e6565b50565b6103676104aa565b73ffffffffffffffffffffffffffffffffffffffff166103856102b0565b73ffffffffffffffffffffffffffffffffffffffff16146103e4576103a86104aa565b6040517f118cdaa70000000000000000000000000000000000000000000000000000000081526004016103db91906106d7565b60405180910390fd5b565b60008060009054906101000a900473ffffffffffffffffffffffffffffffffffffffff169050816000806101000a81548173ffffffffffffffffffffffffffffffffffffffff021916908373ffffffffffffffffffffffffffffffffffffffff1602179055508173ffffffffffffffffffffffffffffffffffffffff168173ffffffffffffffffffffffffffffffffffffffff167f8be0079c531659141344cd1fd0a4f28419497f9722a3daafe3b4186f6b6457e060405160405180910390a35050565b600033905090565b600080fd5b600080fd5b6000819050919050565b6104cf816104bc565b81146104da57600080fd5b50565b6000813590506104ec816104c6565b92915050565b600060208284031215610508576105076104b2565b5b6000610516848285016104dd565b91505092915050565b600081519050919050565b600082825260208201905092915050565b60005b8381101561055957808201518184015260208101905061053e565b60008484015250505050565b6000601f19601f8301169050919050565b60006105818261051f565b61058b818561052a565b935061059b81856020860161053b565b6105a481610565565b840191505092915050565b600060208201905081810360008301526105c98184610576565b905092915050565b600080fd5b600080fd5b600080fd5b60008083601f8401126105f6576105f56105d1565b5b8235905067ffffffffffffffff811115610613576106126105d6565b5b60208301915083600182028301111561062f5761062e6105db565b5b9250929050565b60008060006040848603121561064f5761064e6104b2565b5b600061065d868287016104dd565b935050602084013567ffffffffffffffff81111561067e5761067d6104b7565b5b61068a868287016105e0565b92509250509250925092565b600073ffffffffffffffffffffffffffffffffffffffff82169050919050565b60006106c182610696565b9050919050565b6106d1816106b6565b82525050565b60006020820190506106ec60008301846106c8565b92915050565b6106fb816106b6565b811461070657600080fd5b50565b600081359050610718816106f2565b92915050565b600060208284031215610734576107336104b2565b5b600061074284828501610709565b91505092915050565b7f4e487b7100000000000000000000000000000000000000000000000000000000600052602260045260246000fd5b6000600282049050600182168061079257607f821691505b6020821081036107a5576107a461074b565b5b50919050565b600082905092915050565b7f4e487b7100000000000000000000000000000000000000000000000000000000600052604160045260246000fd5b60008190508160005260206000209050919050565b60006020601f8301049050919050565b600082821b905092915050565b6000600883026108477fffffffffffffffffffffffffffffffffffffffffffffffffffffffffffffffff8261080a565b610851868361080a565b95508019841693508086168417925050509392505050565b6000819050919050565b600061088e610889610884846104bc565b610869565b6104bc565b9050919050565b6000819050919050565b6108a883610873565b6108bc6108b482610895565b848454610817565b825550505050565b600090565b6108d16108c4565b6108dc81848461089f565b505050565b5b81811015610900576108f56000826108c9565b6001810190506108e2565b5050565b601f82111561094557610916816107e5565b61091f846107fa565b8101602085101561092e578190505b61094261093a856107fa565b8301826108e1565b50505b505050565b600082821c905092915050565b60006109686000198460080261094a565b1980831691505092915050565b60006109818383610957565b9150826002028217905092915050565b61099b83836107ab565b67ffffffffffffffff8111156109b4576109b36107b6565b5b6109be825461077a565b6109c9828285610904565b6000601f8311600181146109f857600084156109e6578287013590505b6109f08582610975565b865550610a58565b601f198416610a06866107e5565b60005b82811015610a2e57848901358255600182019150602085019450602081019050610a09565b86831015610a4b5784890135610a47601f891682610957565b8355505b6001600288020188555050505b5050505050505056fea2646970667358221220aa32da3c050a8d165aeadf1a4ae78c697807cd24995df121ba2e1cff82b43d2264736f6c63430008140033",
  "linkReferences": {},
  "deployedLinkReferences": {}
}